:0403000038EF0DF0D5
:101000000001000A006400E803102744697374615A
:101010006E63653A20256420636D004F7574204F20
:10102000662052616E67652100416265642026205A
:101030004D617973616D0044657369676E65642005
:0510400042793A0000B6
:101046001250800B1B6E12501224266E11BE268083
:101056002650D8B40DD02628D8A408D0000E0F6E7E
:10106600000E106E000E116E000E126E118E06D05E
:10107600000E0F6E000E106E000E116E000E126E38
:101086001650800B1B1A16501624276E15BE278085
:101096002750D8B40DD02728D8A408D0000E136E38
:1010A600000E146E000E156E000E166E158E06D00E
:1010B600000E136E000E146E000E156E000E166EE8
:1010C6001350141015101610D8A415D0000E0F6E5C
:1010D600000E106E000E116E000E126E800E1112B2
:1010E6007F0E12120FC00FF010C010F011C011F0D9
:1010F60012C012F012002650D8A411D0000E0F6EA6
:10110600000E106E000E116E000E126E0FC00FF064
:1011160010C010F011C011F012C012F012002750CA
:10112600176E186A171E181E174A182A2650196EA7
:101136001A6A1750192618501A227F0E1924206E83
:10114600000E1A20216E0FC01CF010C01DF011C039
:101156001EF012C01FF0000E0F6E000E106E000E75
:10116600116E000E126E000E226E000E236E000E21
:10117600246E000E256E000E276E28D02750D8B498
:1011860011D0D8901C361D361E361F36D8900F3615
:1011960010361136123625BE0F80D89022362336E9
:1011A6002436253613501C5C14501D5815501E58F5
:1011B60016501F58D8A009D0258C13501C5E145009
:1011C6001D5A15501E5A16501F5A272A190E2764E3
:1011D600D5D71C501D101E101F10D8B411D0228058
:1011E6000FD0D8900F3610361136123625BE0F8026
:1011F600D89022362336243625362006D8A0210656
:1012060011AEEFD7000E276E25AE16D0FF0E2214B4
:10121600176EFF0E2314186EFF0E2414196E7F0E20
:1012260025141A6E1750181019101A10D8A402D0C7
:101236000FA002D0010E276E2750D8B41FD0010E82
:101246000F26000E10221122122212A017D00FC054
:1012560017F010C018F011C019F012C01AF01A34A5
:101266001A3219321832173217C00FF018C010F0A0
:1012760019C011F01AC012F0204A212A21BE10D03E
:10128600215003E12028D8A00BD0000E216E206843
:10129600000E0F6E000E106E000E116E000E126E16
:1012A60021BE05D0215011E12004D8B00ED0000E89
:1012B600216E000E206E000E0F6E000E106E000ED8
:1012C600116E000E126E000E1B6E20C026F026A0B8
:1012D60002D0118E01D0119ED8902630126E1B506E
:1012E60012120FC00FF010C010F011C011F012C092
:1012F60012F0120022EC0DF0F5EC0BF00C0E51EC96
:101306000CF0010E0B6E010EEAEC0CF0370E0F6EB0
:10131600100E106E26EC0CF0030E026EE80E016E37
:101326004DEC0DF0020E0B6E010EEAEC0CF0290EE0
:101336000F6E100E106E26EC0CF00B0E026EB80E31
:10134600016E4DEC0DF00C0E51EC0CF0100ECD6E46
:10135600000ECF6E000ECE6E8180030EE82EFED7F5
:1013660000F0819081A8FED7CD8081B8FED7CD90C0
:10137600CF50336E326ACE50346E356A32503410E6
:10138600566E33503510576E040E136E560E146E8D
:10139600EB0E156E410E166E56C001F057C002F0E8
:1013A600000E02BEFF0E036E046E010E3BEC0AF049
:1013B60001C00FF002C010F003C011F004C012F01B
:1013C60023EC08F00FC028F010C029F011C02AF055
:1013D60012C02BF087EC0BF028C056F029C057F04E
:1013E600010E5624566E000E5720576E57BE2BD050
:1013F600575004E1020E565CD8A025D057BE06D041
:10140600910E565C010E5758D8B01DD00C0E51ECFB
:101416000CF0010E0B6E010EEAEC0CF0360E0D6EA2
:10142600000E0E6E0B0E0F6E100E106E56C011F0E3
:1014360057C012F0E3EC0AF0360E0F6E000E106E77
:1014460026EC0CF00ED00C0E51EC0CF0010E0B6ECF
:10145600010EEAEC0CF01B0E0F6E100E106E26EC51
:101466000CF0010E026E900E016E4DEC0DF070D771
:10147600096E0950D8A404AE1AD001C005F002C006
:1014860006F003C007F004C008F0051E061E071E7E
:10149600081E052A000E06220722082205C00BF0A8
:1014A60006C00CF007C00DF008C00EF008D001C051
:1014B6000BF002C00CF003C00DF004C00EF001509A
:1014C600021003100410D8A409D0000E016E000EFD
:1014D600026E000E036E000E046E1200960E0A6E69
:1014E60006D00A2AD8900E320D320C320B32000E7C
:1014F6000B14056E000E0C14066E000E0D14076E0E
:10150600FE0E0E14086E0550061007100810D8B40B
:101516000DD0E7D70A2A010E0B26000E0C220D224B
:101526000E22D8900E320D320C320B32000E0B14F6
:10153600056E000E0C14066E000E0D14076EFF0EDF
:101546000E14086E0550061007100810D8B407D000
:10155600E1D70A06D8900B360C360D360E360DBE80
:1015660003D0020E0A60F5D70AB008D0FF0E0B169C
:10157600FF0E0C167F0E0D16FF0E0E16D8900A32B1
:101586000AC005F0066A076A086A05C008F0076A15
:10159600066A056A05500B1206500C1207500D120A
:1015A60008500E120950D8A404AE01D00E8E0BC0FE
:1015B60001F00CC002F00DC003F00EC004F01200E2
:1015C600110E146E000E156E8CD0250E1A18D8B496
:1015D60009D00DC0D9FF0EC0DAFF1AC0DFFF0D4AD1
:1015E6000E2A7FD0000E166E0FC0F6FF10C0F7FF52
:1015F6000F4A102A0800F5CF1AF01A50000AD8B47C
:101606007CD0640AD8B403D00D0AD8A46AD014C01A
:10161600D9FF15C0DAFFDECF18F0DDCF19F0020EC4
:101626001426000E152219AE06D0030E1612186CDB
:10163600191ED8B0192A010E1A6E050E1A18D8B43A
:1016460012D01A50020D010EF324F66E100EF4207D
:10165600F76E0900F550185C0900F5501958D8A026
:1016660002D01A2AEAD716C013F0030E1316D8B4FE
:1016760008D00DC0D9FF0EC0DAFF2D0EDF6E0D4A61
:101686000E2A1AC017F029D01750020D010EF324A6
:10169600F66E100EF420F76E0900F5CF03F00A007F
:1016A600F5CF04F018C001F019C002F07CEC0CF084
:1016B60001C008F002C009F0000E0B6E0A0E0A6E99
:1016C600C9EC0CF00850300F1A6E0DC0D9FF0EC0D1
:1016D600DAFF1AC0DFFF0D4A0E2A17061728D8A40C
:1016E600D3D70FC0F6FF10C0F7FF0F4A102A080025
:1016F600F5CF1AF01A50D8A468D70DC0D9FF0EC07E
:10170600DAFF000EDF6E12002A342B34316E3150B0
:10171600D8A409D0000E286E000E296E000E2A6E7F
:10172600000E2B6E120028C02CF029C02DF02AC006
:101736002EF02BC02FF0200E05D0D8902F322E324F
:101746002D322C32E82EF9D72C50306E2A8EFF0E11
:101756002816FF0E2916FF0E2A16000E2B16960EB9
:10176600315E31AE16D03150800A970FD8B009D00D
:10177600000E286E000E296E000E2A6E000E2B6ECD
:101786001200D8902B322A3229322832313EF9D72C
:1017960015D01F0E31640FD0000E286E000E296E74
:1017A600000E2A6E000E2B6E1200D89028362936AF
:1017B6002A362B3631063150D8A4F7D73050D8B454
:1017C60008D02B1E2A1E291E286C000E29222A222A
:1017D6002B2228C028F029C029F02AC02AF02BC0C5
:1017E6002BF0120083928396000E026E190E016E84
:1017F6004DEC0DF0010E0B6E030E0B6401D00BD0F9
:10180600030E5FEC0DF0000E026E060E016E4DEC3F
:101816000DF00B2AF1D7020E5FEC0DF0000E0B6EE9
:10182600030E0B6401D012000B50010D580EF32469
:10183600D96E000EF420DA6EDF50096E000EA5ECAC
:101846000CF00B2AEDD715D00FC0F6FF10C0F7FF2E
:10185600000EF86E0F0EF76403D00800F55005D0A1
:10186600F6CFD9FFF7CFDAFFDF5051EC0CF00F4A75
:10187600102A0FC0F6FF10C0F7FF000EF86E0F0E0D
:10188600F76403D00800F55005D0F6CFD9FFF7CF9F
:10189600DAFFDF500009D8B41200D6D70E6E1ED07C
:1018A600010E096E000EA5EC0CF0000E026E020E83
:1018B600016E4DEC0DF01200020E0B6E010EEAECFD
:1018C6000CF01200100E096E000EA5EC0CF01200C2
:1018D6000EC009F0010EA5EC0CF012000E50080A1D
:1018E600D8B4F0D7020AD8B4E7D7060AD8B4D8D7FE
:1018F600EFD7000E066E000E056E03500410D8B426
:101906001CD0010E076E04D0D89003360436072A81
:1019160004AEFAD7D890053606360350015C04505B
:101926000258D8A005D00350015E0450025A058023
:10193600D89004320332072EEDD705C001F006C059
:1019460002F012000A6E0AB002D0839201D083829E
:10195600010E0BEC0DF0010E0BEC0DF08396093821
:101966000F0B5FEC0DF009500F0B5FEC0DF00A50FA
:10197600D8B405D0320E0400E82EFDD71200000EB2
:10198600026E020E016E4DEC0DF012000A500B10A5
:10199600D8B418D0010E0C6E04D0D8900A360B3687
:1019A6000C2A0BAEFAD70A50085C0B500958D8A07F
:1019B60004D00A50085E0B50095AD8900B320A32EE
:1019C6000C2EF1D708C008F009C009F012000C6E01
:1019D60009D0800E05D0C00E03D0900E01D0D00ED7
:1019E6000D6E0DD00B50010AD8B4F3D7030AD8B444
:1019F600F2D7010AD8B4F1D7070AD8B4F0D70C0445
:101A06000D260D508009096E000EA5EC0CF0120093
:101A1600066E000E056E000E046E03D00400044A26
:101A2600052A0650016E026A0450015C0250800AC3
:101A3600036E0550800A0358D8A01200EFD70F0E88
:101A4600C16E000E8D6E8DCF8CFF8CCF8BFF8BCF32
:101A56008AFF8ACF89FF9268900E936E000E956E6C
:101A6600000E966E800E946E1200E00EF66E1A0E42
:101A7600F76E000EF86E00EE58F010EE04F0090056
:101A8600F5CFEEFFE550E150FAE1000EF86E0001E9
:101A96007DEF09F0000E046E000E036E06D0FA0EFE
:101AA6000400E82EFDD7034A042A0150035C0250C5
:101AB6000458D8B01200F3D7086E08C007F0073AEA
:101AC600835007180F0B0718836E010E0BEC0DF0F1
:0E1AD6008386040000F083961200280C01069F
:020000040020DA
:08000000FFFFFFFFFFFFFFFF00
:020000040030CA
:0E000000FF011F1FFF8385FF0FC00FE00F40A1
:00000001FF
